:100000000C9463000C948B000C948B000C94FE0BEE
:100010000C94FE0B0C94FE0B0C948B000C948B0038
:100020000C948B000C948B000C948B000C948B0024
:100030000C948B000C948B000C948B000C948B0014
:100040000C94400A0C948B000C9440090C941A09EF
:100050000C948B000C948B000C948B000C948B00F4
:100060000C948B000C948B000000000024002700EF
:100070002A0004040404040404040202020202022A
:10008000030303030303010204081020408001025C
:1000900004081020010204081020000000002300C2
:1000A0002600290000000000250028002B00000089
:1000B0000008000201000003040700000000000027
:1000C0000000D41A681B11241FBECFEFD8E0DEBF9A
:1000D000CDBF14E0A0E0B1E0E6EFF2E402C005908D
:1000E0000D92A43FB107D9F727E0A4EFB4E001C017
:1000F0001D92AC30B207E1F710E0C2E6D0E004C0D8
:100100002197FE010E94BB1BC136D107C9F70E948F
:10011000C50C0C946E210C94000008950F931F934E
:10012000CF93DF93EC010E94340A688779878A872E
:100130009B87E881F9810680F781E02DCE01099542
:1001400097FF17C00E94340A088519852A853B85C8
:10015000DC01CB01801B910BA20BB30B0C811D8129
:100160002E813F8180179107A207B30710F38FEF0D
:100170009FEFDF91CF911F910F9108958F929F92E2
:10018000AF92BF92CF92DF92EF92FF920F931F93A5
:10019000CF93DF93CDB7DEB7C054D1400FB6F894FC
:1001A000DEBF0FBECDBF8C010E94340AF801C184AE
:1001B000D284E384F4849B01AC012C193D094E09DF
:1001C0005F0969017A0130EDC31637E0D306E10417
:1001D000F10410F48189B4C0F801618772878387C4
:1001E00094871482138212821182108261E08581C9
:1001F0000E9472096AEF70E080E090E00E94FA09C4
:1002000061E0F80185810E94BE0960E0F801858106
:100210000E94720964E170E080E090E00E94FA09B7
:10022000F89461E0F80185810E9472098BE990E001
:100230000197F1F762E0F80185810E94BE0983E22F
:1002400090E00197F1F760E0C8010E948A0A672BED
:10025000682B692B21F4F801118A789442C061E07F
:10026000C8010E948A0A672B682B692BA1F39E01A3
:100270002F5F3F4F79015E013FEBA31A3EEFB30AB8
:10028000670160E0C8010E948A0AF60160837183F9
:100290008283938361E0C8010E948A0AF601648325
:1002A000758386839783F8E0CF0ED11CCA14DB04D4
:1002B00041F7789420E030E0F7014081518162817C
:1002C000738184809580A680B780411551056105B2
:1002D000710529F081149104A104B10421F4F801FD
:1002E000118A80E02DC0F90183E0F595E7958A95A4
:1002F000E1F7E00FF11F8081880F481559056A0565
:100300007B0508F4816080832F5F3F4FF8E0EF0E9C
:10031000F11C2832310581F6F801248130E040815A
:10032000818190E0840F911D4281840F911D438152
:10033000840F911D99272817390789F681E0818B51
:10034000C05CDE4F0FB6F894DEBF0FBECDBFDF91AD
:10035000CF911F910F91FF90EF90DF90CF90BF90C2
:10036000AF909F908F9008950F931F93CF93DF933B
:10037000EC0188819981009729F02A813B81261719
:10038000370788F48B016F5F7F4F0E945A1E0097DA
:1003900061F0998388831B830A832C813D81232B01
:1003A00011F4FC01108281E001C080E0DF91CF9167
:1003B0001F910F910895EF92FF920F931F93CF9388
:1003C000DF93FC01248135816115710511F480E012
:1003D00019C041155105A9F07B01EC018A01020FFA
:1003E000131FB8010E94B401882389F32881398141
:1003F0008C819D81B701820F931F0E94461F1D8330
:100400000C8381E0DF91CF911F910F91FF90EF90CE
:100410000895CF93DF93EC0188819981009711F0C3
:100420000E94C21D198218821D821C821B821A82A0
:10043000DF91CF910895EF92FF920F931F93CF9387
:10044000DF93EC017B018A01BA010E94B4018111A2
:1004500004C0CE010E94090207C01D830C83B701AE
:10046000888199810E94461FCE01DF91CF911F9113
:100470000F91FF90EF900895EFE5F5E0A089B18925
:1004800082E08C93A485B5851C92A685B78580E112
:100490008C93108EA489B58986E08C93A289B38948
:1004A0008C9180618C93A289B3898C9188608C93A4
:1004B000A289B3898C9180688C930288F389E02D9E
:1004C00080818F7D80830895CF92DF92EF92FF929B
:1004D000CF93DF93EC010E94BE00882381F18E81CF
:1004E0008B3031F160F18551823048F5688170E0E0
:1004F00080E090E00E94F61F20E030E040E853E406
:100500000E9457206B017C018981682F70E080E098
:1005100090E00E94F81F9B01AC01C701B6010E9448
:10052000C21B2DEC3CEC4CEC5DE30E9457200BC051
:10053000688170E080E090E00E94F61F04C060E0F7
:1005400070E080EC9FE7DF91CF91FF90EF90DF901C
:10055000CF900895CF92DF92EF92FF921F93CF93A7
:10056000DF93EC010E94BE008823B1F18E818B30B5
:1005700029F090F18551823040F02EC06A8170E000
:1005800080E090E00E94F61F2BC01A81612F6F77E8
:1005900070E080E090E00E94F81F20E030E040E84A
:1005A00053E40E9457206B017C018B81682F70E01F
:1005B00080E090E00E94F81F9B01AC01C701B601EA
:1005C0000E94C21B2DEC3CEC4CEC5DE30E945720DA
:1005D00017FF06C0905804C060E070E080EC9FE711
:1005E000DF91CF911F91FF90EF90DF90CF90089512
:1005F000FC01248135816217730720F48081918189
:10060000009729F41092BA068AEB96E00895860FB7
:10061000971F0895FC0124813581232B31F421E0BB
:1006200061157105A1F0FB0108C0FC018081918179
:100630006115710531F421E0FC018081882339F0D6
:1006400005C00E943D1F21E0892B09F020E0822F88
:100650000895CF93DF93EC016115710561F0FB0103
:1006600001900020E9F73197AF01461B570B0E941C
:10067000DB01811103C0CE010E940902CE01DF918E
:10068000CF910895CF93DF93EC01FB014481558115
:10069000608171810E94DB01811103C0CE010E9443
:1006A0000902CE01DF91CF910895CF93DF93EC0142
:1006B0006115710559F0FB0101900020E9F73197B0
:1006C000AF01461B570B0E941B0202C00E94090289
:1006D000CE01DF91CF910895FC01808191810C942E
:1006E000C21D0F931F93CF93DF93CDB7DEB76297F1
:1006F0000FB6F894DEBF0FBECDBF8C01CB01F80161
:1007000011821082138212821582148250E0BE017F
:100710006F5F7F4F0E949C1FBE016F5F7F4FC801BC
:100720000E94550362960FB6F894DEBF0FBECDBF90
:10073000DF91CF911F910F910895FB01DC0111967C
:100740001C921E9213961C921E92129715961C9242
:100750001E9214978617970749F060817181611581
:10076000710521F0448155810C941B020895FC0110
:100770001182108213821282158214826115710512
:1007800051F0FB0101900020E9F73197AF01461BC2
:10079000570B0C941B020895BF92CF92DF92EF92F9
:1007A000FF920F931F93CF93DF937C016B018A011C
:1007B000E9012417350720F4812F8901C42FD82F90
:1007C00060EB73E0C7010E94B703D60114968D91C8
:1007D0009C91159708171907D0F48C179D0708F4FA
:1007E000EC01D601ED91FC911197EC0FFD1FB0804B
:1007F00010824D915C91BA01600F711FC7010E9478
:100800005503D601ED91FC91EC0FFD1FB082C7019D
:10081000DF91CF911F910F91FF90EF90DF90CF90DC
:10082000BF900895AF92BF92CF92DF92EF92FF9266
:100830000F931F93CF93DF93CDB7DEB728970FB6F3
:10084000F894DEBF0FBECDBF8C016B010E94340A4D
:100850000D2C000CEE08FF08C60ED71EE81EF91E70
:100860000E94340A6C157D058E059F05B8F5A09091
:100870006E06B0906F0660EB73E0CE0101960E94A9
:10088000B703C5010E948E0097FD0FC08A30910505
:1008900061F08F83188641E050E0BE01695F7F4FB1
:1008A000CE0101960E94DB01ECCF2D813E81211506
:1008B000310579F02150310940E050E0BE016F5F11
:1008C0007F4FC8010E94CC03CE0101960E946C03A9
:1008D0000AC0CE0101960E946C03C2CF60EB73E0A8
:1008E000C8010E94B703C80128960FB6F894DEBF6E
:1008F0000FBECDBFDF91CF911F910F91FF90EF9071
:10090000DF90CF90BF90AF9008954F925F926F921B
:100910007F92EF92FF920F931F93CF93DF93CDB708
:10092000DEB7A1970FB6F894DEBF0FBECDBF7C0136
:10093000FA01CB0119A2223008F42AE08E010F5DE2
:100940001F4F422E512C612C712CBF01A30192012B
:100950000E941521F901CA01015011096A3014F4ED
:10096000605D01C0695CD8016C93232B242B252B7F
:1009700061F7B801C7010E94AA0CA1960FB6F894BE
:10098000DEBF0FBECDBFDF91CF911F910F91FF90C2
:10099000EF907F906F905F904F9008954F925F928D
:1009A0006F927F928F929F92AF92BF92CF92DF927F
:1009B000EF92FF926B017C019B01AC010E94FF1C36
:1009C000882319F063EA74E01AC046015701E894DD
:1009D000B7F82FEF3FEF4FE75FE7C501B4010E9483
:1009E000FF1C811112C02FEF3FEF4FE75FE7C501FA
:1009F000B4010E94F11F181644F467EA74E08FE511
:100A000095E00E94AA0C7C018BC02FEF3FEF4FE7CF
:100A10005FE4C701B6010E94D61C18161CF46BEAED
:100A200074E0EDCF2FEF3FEF4FE75FECC701B6016A
:100A30000E94F11F87FDF3CF20E030E0A901C7013C
:100A4000B6010E94F11F87FF0BC06DE28FE595E0B4
:100A50000E94A30C5C01F7FAF094F7F8F09402C03E
:100A6000A12CB12C2AE037ED43EA5BE3C701B601C4
:100A70000E94C21B2B013C010E94A71C6B017C0140
:100A80000E94F61F9B01AC01C301B2010E94C11B71
:100A90002B013C012AE0B701A6018FE595E00E94F9
:100AA00085047C01EA0CFB1C6FEA74E08FE595E09D
:100AB0000E94AA0CE80EF91E20E030E040E251E46A
:100AC000C301B2010E9457202B013C010E94A71CC8
:100AD0004B01A12CB12C2AE0B501A4018FE595E0D2
:100AE0000E948504E80EF91EC501B4010E94F61F9C
:100AF0009B01AC01C301B2010E94C11B20E030E0A8
:100B000040E251E40E9457200E94A71CAB0160E024
:100B100070E02AE08FE595E00E948504E80EF91E5A
:100B20008FE595E00E94BF0C8E0D9F1DFF90EF900A
:100B3000DF90CF90BF90AF909F908F907F906F90FD
:100B40005F904F9008950F931F93CF93DF93EC0125
:100B50000E94AA0C8C01CE010E94BF0C800F911F35
:100B6000DF91CF911F910F9108950F931F93CF9312
:100B7000DF93EC01E881F981DB0114964D915C91E2
:100B800015976D917C910280F381E02D09958C0180
:100B9000CE010E94BF0C800F911FDF91CF911F915A
:100BA0000F910895CF93DF93EC0180916E069091A1
:100BB0006F060E94B50568E770E0CE010E9412043E
:100BC000CE01DF91CF9108950F931F93CF93DF93C1
:100BD000CDB7DEB72C970FB6F894DEBF0FBECDBFF2
:100BE0008C0168E770E0CE0107960E94120460EB6A
:100BF00073E0CE0107960E940A03882361F080917A
:100C0000700690917106009709F44FC061EB74E093
:100C10000E94A3054AC02B853C85F80184819581FB
:100C20002817390709F58F819885608171810097B0
:100C300019F061157105A1F46115710549F0232BB7
:100C400091F1FB01808190E09195819591090AC015
:100C5000009749F1232B39F1FC01808190E002C01B
:100C60000E943D1F892BF9F08091700690917106CA
:100C7000892BD9F06EEC74E0CE0101960E94B70387
:100C8000BE01695F7F4FCE0101960E944203BC0105
:100C900080917006909171060E94B505CE01019673
:100CA0000E946C0302C011E001C010E0CE01079663
:100CB0000E946C03812F2C960FB6F894DEBF0FBEF6
:100CC000CDBFDF91CF911F910F9108950F931F9387
:100CD000CF93DF9300D000D000D0CDB7DEB78C012A
:100CE0008091700690917106892BB1F063EE74E0EB
:100CF000CE0101960E94B703B801CE0101960E9471
:100D00004203BC0180917006909171060E94B50566
:100D1000CE0101960E946C03B80180916E069091FD
:100D20006F060E94B50564E074E0CE0101960E9452
:100D3000B703CE0101960E94E405182FCE0101965B
:100D40000E946C03812F26960FB6F894DEBF0FBE6B
:100D5000CDBFDF91CF911F910F910895AF92BF92B8
:100D6000CF92DF92EF92FF920F931F93CF93DF9377
:100D7000CDB7DEB72C970FB6F894DEBF0FBECDBF50
:100D80006C017B018A018091700690917106892B1C
:100D900069F14AE0B801CE0101960E94710363EE49
:100DA00074E0CE0107960E94B703B601CE01079604
:100DB0000E9442036DEE74E00E942903BE016F5F42
:100DC0007F4F0E94420369E474E00E942903BC0142
:100DD00080917006909171060E94B505CE0107962C
:100DE0000E946C03CE0101960E946C03B601CE01F5
:100DF00001960E949D0369E573E0CE0101960E9471
:100E00002903A0916E06B0916F062D913C91119728
:100E1000FC014481558160817181F9012281338116
:100E2000CD01F9010995CE0101960E946C0357018D
:100E300080916E0690916F0695012E193F0920173B
:100E4000310724F56501F501208130E044E0359556
:100E500027954A95E1F72A30310514F067E301C080
:100E600060E3620F0E94A30CFFEFAF1ABF0AF60106
:100E700060816F706A3010F0695C01C0605D8091C4
:100E80006E0690916F060E94A30CD2CF0E94BF0CF9
:100E900064E074E0CE0101960E94B703CE01019692
:100EA0000E94E405182FCE0101960E946C03812F49
:100EB0002C960FB6F894DEBF0FBECDBFDF91CF9159
:100EC0001F910F91FF90EF90DF90CF90BF90AF9068
:100ED0000895FC01918D828D981761F0828DDF015C
:100EE000A80FB11D5D968C91928D9F5F9F73928F1D
:100EF00090E008958FEF9FEF0895FC01918D828D12
:100F0000981731F0828DE80FF11D858D90E00895DE
:100F10008FEF9FEF0895FC01918D228D892F90E036
:100F2000805C9F4F821B91098F73992708958FE5ED
:100F300095E00E948B0721E0892B09F420E0822FA5
:100F40000895FC01848DDF01A80FB11DA35ABF4F86
:100F50002C91848D90E001968F739927848FA689B8
:100F6000B7892C93A089B1898C9180648C93938DDF
:100F7000848D981306C00288F389E02D80818F7DCF
:100F800080830895EF92FF920F931F93CF93DF9387
:100F9000EC0181E0888F9B8D8C8D981305C0E889CA
:100FA000F989808185FD24C0F62E0B8D10E00F5F3E
:100FB0001F4F0F731127E02E8C8DE8120CC00FB657
:100FC00007FCFACFE889F989808185FFF5CFCE014A
:100FD0000E94A107F1CF8B8DFE01E80FF11DE35AAE
:100FE000FF4FF0820B8FEA89FB898081806207C006
:100FF000EE89FF896083E889F98980818064808334
:1010000081E090E0DF91CF911F910F91FF90EF90E1
:101010000895CF93DF93EC01888D8823C9F0EA8986
:10102000FB89808185FD05C0A889B9898C9186FDE1
:101030000FC00FB607FCF5CF808185FFF2CFA889DE
:10104000B9898C9185FFEDCFCE010E94A107E7CF32
:10105000DF91CF91089580E090E0892B29F00E94E4
:10106000970781110C94000008953FB7F894809180
:10107000040790910507A0910607B091070726B5D0
:10108000A89B05C02F3F19F00196A11DB11D3FBFC0
:10109000BA2FA92F982F8827820F911DA11DB11D4E
:1010A000BC01CD0142E0660F771F881F991F4A954A
:1010B000D1F708952091FD063091FE0628173907D3
:1010C00071F49091FC068091FB06981741F0E09135
:1010D000FC06F0E0E554F94F808190E008958FEF31
:1010E0009FEF089508951F93CF93DF93DC015C96E3
:1010F0002D913C915D972115310539F481E090E007
:1011000013969C938E9312973DC05196ED91FC914E
:10111000529750969C915097892F80951FB75E9655
:101120004C915E9741FB772770F941FD6095F894EB
:101130004081772311F0492B01C048234083E90106
:101140002197F1F748E0508160FF02C0592B01C0A0
:1011500058235083E9012197F1F76695415099F79B
:10116000772321F090818923808303C08081982B8D
:1011700090831FBF5C968D919C915D970197F1F7CD
:1011800021E030E0C901DF91CF911F9108952091B6
:10119000FD063091FE062817390771F48091FB0691
:1011A0002091FC0690E0805C9F4F821B910960E4D7
:1011B00070E00E94741B089580E090E008952091F3
:1011C000FD063091FE0628173907B9F49091FC0608
:1011D0008091FB06981789F0E091FC06F0E0E55459
:1011E000F94F80812091FC0630E02F5F3F4F2F7335
:1011F00033272093FC0690E008958FEF9FEF08952A
:1012000026E531E0FC0131832083E091FD06F09179
:10121000FE06E817F90759F4A389B4899C918589DA
:10122000809589238C931092FE061092FD060895F6
:101230000E94241F1F920F920FB60F9211242F931A
:101240003F934F935F936F937F938F939F93AF934E
:10125000BF93EF93FF938FE595E00E94A107FF9165
:10126000EF91BF91AF919F918F917F916F915F911E
:101270004F913F912F910F900FBE0F901F90189597
:101280001F920F920FB60F9211242F938F939F935B
:10129000EF93FF93E0916F05F09170058081E091ED
:1012A0007505F091760582FD12C0908180917805D8
:1012B0008F5F8F7320917905821751F0E091780547
:1012C000F0E0E15AFA4F958F8093780501C0808154
:1012D000FF91EF919F918F912F910F900FBE0F90E3
:1012E0001F90189590E0FC01E255FF4F3491FC01EE
:1012F000EA57FF4F2491FC01EE58FF4FE491EE2393
:1013000009F43BC0332339F1333091F038F43130F4
:10131000A9F0323001F584B58F7D12C0373091F0DD
:101320003830A1F03430B9F4809180008F7D03C053
:10133000809180008F77809380000DC084B58F7777
:1013400084BD09C08091B0008F7703C08091B00048
:101350008F7D8093B000F0E0EE0FFF1FEC55FF4F44
:10136000A591B4918FB7F894EC91611103C02095C9
:101370002E2301C02E2B2C938FBF0895CF93DF9384
:1013800090E0FC01EA57FF4F2491FC01EE58FF4F1B
:101390008491882361F190E0880F991FFC01E8593E
:1013A000FF4FC591D491FC01EC55FF4FA591B4912D
:1013B000611109C09FB7F8948881209582238883A2
:1013C000EC912E230BC0623061F49FB7F894388102
:1013D000822F809583238883EC912E2B2C939FBFA3
:1013E00006C08FB7F894E8812E2B28838FBFDF913A
:1013F000CF9108958F929F92AF92BF92CF92DF923A
:10140000EF92FF926B017C010E9435084B015C0159
:10141000C114D104E104F104F1F00E943508DC01AB
:10142000CB0188199909AA09BB09883E9340A105F7
:10143000B10570F321E0C21AD108E108F10888EE85
:10144000880E83E0981EA11CB11CC114D104E104D4
:10145000F10419F7DDCFFF90EF90DF90CF90BF90B0
:10146000AF909F908F9008952FB7F89460910007E8
:101470007091010780910207909103072FBF089593
:101480001F920F920FB60F9211242F933F938F93B9
:101490009F93AF93BF938091000790910107A09114
:1014A0000207B09103073091FF0623E0230F2D3789
:1014B00020F40196A11DB11D05C026E8230F029658
:1014C000A11DB11D2093FF06809300079093010793
:1014D000A0930207B093030780910407909105073A
:1014E000A0910607B09107070196A11DB11D809339
:1014F000040790930507A0930607B0930707BF91D1
:10150000AF919F918F913F912F910F900FBE0F90B0
:101510001F9018958F929F92AF92BF92CF92DF92B9
:10152000EF92FF920F931F93CF93DC011796CC910C
:101530001797662311F08C2F01C080E018962C912C
:10154000189730E0220F331F26563F4F40E050E0FF
:10155000BA01F90105911491F80190819C23981327
:1015600015C06A017B019FEFC91AD90AE90AF90A75
:101570001D968D909D90AD90BC9050974815590543
:101580006A057B0538F4B701A601E3CF342F252F78
:10159000CB0104C030E020E080E090E0632F722FA8
:1015A000CF911F910F91FF90EF90DF90CF90BF9060
:1015B000AF909F908F90089508958EBD00000DB458
:1015C00007FEFDCF8EB508958CBD9DBD0895CF93C8
:1015D000DF93EC019A01AB011B8E1A8E198E188EC7
:1015E0001F8A1E8A60E079E08DE390E00E94881BEC
:1015F000F9012430310518F0C901039702C081E0D8
:1016000090E09D8F8C8F6C85663108F069C0C901B0
:10161000969587958431910510F0439702C081E03B
:1016200090E09F8B8E8B369718F0C901059702C00A
:1016300081E090E0998F888FC901880F991F280F4A
:10164000391F36952795369527952D30310518F099
:101650002C50310902C021E030E03B8F2A8F90915D
:101660006800683050F021E06E3008F420E081E03E
:1016700001C0880F2A95EAF701C084E0892B809386
:1016800068009C85983038F09E3040F0963148F0E4
:1016900020E030E008C02DE630E005C02BE630E069
:1016A00002C02CE630E03C8B2B8B983030F481E08C
:1016B00001C0880F9A95EAF70EC0292F30E09E30BE
:1016C00018F42850310902C02E50310981E001C0C0
:1016D000880F2A95EAF78D8B8C8D9D8D0197F1F7F8
:1016E0008A8D9B8D892B09F1E091FD06F091FE0614
:1016F000EC17FD07D1F0309739F0A389B4899C919C
:101700008589809589238C938E8D8E7F8E8F109204
:10171000FB061092FC06D093FE06C093FD06EB89F3
:10172000FC8990818D89892B8083DF91CF910895E9
:101730000F931F93CF93DF93EC01162F042F1B827F
:101740001A8288EE93E0A0E0B0E08C839D83AE83A4
:10175000BF8386E591E0998388831F8A1E8A198E4C
:10176000188E1B8E1A8E1D8E1C8E6E8D6E7F20FB2A
:1017700061F96E8F6695617081E06827842F0E9401
:10178000720961E0802F0E94BE09402F50E0FA01EB
:10179000EA57FF4FE491E88BFA01EE58FF4FE491CE
:1017A000F0E0EE0FFF1FEC55FF4F859194919A8B5F
:1017B000898B60E0812F0E94BE098E8D81FD04C05F
:1017C00061E0812F0E9472091C87612F70E0FB018C
:1017D000EA57FF4FE491ED87FB01EE58FF4FE4918C
:1017E000F0E0EE0FFF1FE656FF4F859194919F8723
:1017F0008E87DF91CF911F910F9108951F920F92C5
:101800000FB60F9211242F933F934F935F936F93D3
:101810007F938F939F93AF93BF93EF93FF93E09149
:10182000FD06F091FE06309709F451C0968DA6850D
:10183000B785858591FF04C09C91892329F447C011
:101840009C91892309F043C0A389B4899C9185891F
:10185000809589238C93868997890197F1F7608D0C
:10186000718DA685B785558538E020E0CB010197BD
:10187000F1F7822F90E095958795282F4C9145237D
:1018800009F02068315091F7868D81FD2095809177
:10189000FB0690E001968F7399273091FC0638176C
:1018A00049F0A091FB06B0E0A554B94F2C9380936A
:1018B000FB0603C0868D8160868F828D938D019794
:1018C000F1F7A389B4899C918589892B8C93FF9129
:1018D000EF91BF91AF919F918F917F916F915F91A8
:1018E0004F913F912F910F900FBE0F901F90189521
:1018F000CF92DF92EF92FF920F931F93CF93DF93DC
:101900006C017A018B01C0E0D0E0CE15DF0589F0D3
:10191000D8016D918D01D601ED91FC910190F0817E
:10192000E02DC6010995892B11F47E0102C0219694
:10193000ECCFC701DF91CF911F910F91FF90EF90F6
:10194000DF90CF900895DC01ED91FC910190F08142
:10195000E02D09946115710579F0FB0101900020DB
:10196000E9F73197AF01461B570BDC01ED91FC9174
:101970000280F381E02D099480E090E008956EEA02
:1019800073E00C94AA0C0C94AA0CCF93DF93CDB700
:10199000DEB7C25CD1090FB6F894DEBF0FBECDBF73
:1019A000789484B5826084BD84B5816084BD85B53A
:1019B000826085BD85B5816085BD80916E00816046
:1019C00080936E00109281008091810082608093EC
:1019D00081008091810081608093810080918000EE
:1019E0008160809380008091B10084608093B10019
:1019F0008091B00081608093B00080917A00846013
:101A000080937A0080917A00826080937A0080913E
:101A10007A00816080937A0080917A008068809358
:101A20007A001092C1001092530510925405109242
:101A3000550510925605109221051092220510921C
:101A400023051092240560ED77E080E090E00E948D
:101A5000FA098FE595E090935205809351050E9415
:101A60003C020E94340A0091210510912205209128
:101A7000230530912405DC01CB01801B910BA20BC7
:101A8000B30B8197A105B10538F463E070E080E005
:101A900090E00E94FA09E5CF0E94340A6093210584
:101AA00070932205809323059093240567E671E0E7
:101AB00080915105909152050E94C30C6AE070E03C
:101AC00080E090E00E94FA0981E0809325050E9461
:101AD0003C0240E051EE60E070E081E496E00E945C
:101AE000E70A62E0809115060E94BE0940E3C42E19
:101AF00048EFD42EEE24EA94FE2CC0921906D09220
:101B00001A06E0921B06F0921C0662E08091030622
:101B10000E94BE09C0920706D0920806E09209060C
:101B2000F0920A0668EE73E080E090E00E94FA0905
:101B300081E496E090936F0680936E068FE595E0C2
:101B4000909371068093700669E771E081E496E0F6
:101B50000E94A30568EB7BE0CE0185559F4F0E9454
:101B6000120460EB73E0CE0185559F4F0E940A037B
:101B7000882361F08091700690917106009709F4B6
:101B80006DC163E871E00E94A30568C1C155DF4FD4
:101B900088819981CF5AD040892B89F0C555DF4F74
:101BA00008811981CB5AD04060E270E0C8010E94E0
:101BB000321F009721F09C01201B310B02C02FEF38
:101BC0003FEF40E050E0BE0165557F4FCE010196EA
:101BD0000E94CC038091720690917306009789F061
:101BE00069817A816115710551F0409174065091B7
:101BF00075062D813E814217530708F0FCC40E94F0
:101C0000C21D89819A8190937306809372068B819D
:101C10009C8190937506809374068D819E8190932C
:101C20007706809376061A8219821C821B821E8296
:101C30001D82CE0101960E946C03809170069091E6
:101C40007106892B01F163E971E0CE0101960E94D2
:101C5000B703BE0165557F4FCE0101960E94420336
:101C60006FE971E00E94290362E776E00E94420377
:101C7000BC0180917006909171060E94B505CE015D
:101C800001960E946C0360E971E0CE0183579F4F7B
:101C90000E94B7036BEA71E0CE0101960E94B70380
:101CA000BE0163577F4FCE0101960E944203BC01E3
:101CB000CE018F559F4F0E949D03CE018F559F4FA0
:101CC0000E946606CE018F559F4F0E946C03CE0185
:101CD00001960E946C03CE0183579F4F0E946C03B4
:101CE00068EB71E0CE0101960E94B703CE01019628
:101CF0000E946606CE0101960E946C034AE065E0F0
:101D000070E0CE0183579F4F0E9471036AEC71E02F
:101D1000CE0101960E94B703BE0163577F4FCE01EB
:101D200001960E944203BC01CE018F559F4F0E9435
:101D30009D03CE018F559F4F0E946606CE018F55A1
:101D40009F4F0E946C03CE0101960E946C03CE014E
:101D500083579F4F0E946C0300E010E00F5F1F4FFE
:101D600008341105A9F108301105C4F34AE0B8019F
:101D7000CE0183579F4F0E94710368ED71E0CE0141
:101D800001960E94B703BE0163577F4FCE010196B3
:101D90000E9442036BEE71E00E942903BC01CE0158
:101DA0008F559F4F0E949D03CE018F559F4F0E94DC
:101DB0006606CE018F559F4F0E946C03CE0101969F
:101DC0000E946C03CE0183579F4F0E946C03C6CFC5
:101DD0008091700690917106892B09F43FC04AE00A
:101DE00067E470E0CE018F559F4F0E9471034AE077
:101DF00068E070E0CE0183579F4F0E94710360EF4F
:101E000071E0CE0101960E94B703BE0163577F4F78
:101E1000CE0101960E9442036AEF71E00E942903FD
:101E2000BE016F557F4F0E9442036FEF71E00E9429
:101E30002903BC0180917006909171060E94B5053E
:101E4000CE0101960E946C03CE0183579F4F0E94E2
:101E50006C03CE018F559F4F0E946C03CE018555B8
:101E60009F4F0E946C036EE072E0CE0101960E94CB
:101E7000B70344E050E066E271E0CE0101960E94B3
:101E8000AE06CE0101960E946C036EE172E0CE01B7
:101E900001960E94B70340E150E066E171E0CE0197
:101EA00001960E94AE06CE0101960E946C036EE27E
:101EB00072E0CE0101960E94B70340E150E066E077
:101EC00071E0CE0101960E94AE06CE0101960E94FD
:101ED0006C036EE372E0CE0101960E94B703CE015F
:101EE00001960E946606CE0101960E946C0368E787
:101EF00070E0CE0185559F4F0E9412046BE472E0A2
:101F0000CE0185559F4F0E940A03209170063091A3
:101F1000710681111AC0232B09F44AC064E572E0EE
:101F2000CE0101960E94B703BE0165557F4FCE01D9
:101F300001960E944203BC01809170069091710647
:101F40000E94B505CE01019631C0232B89F16FE6C1
:101F500072E0CE0183579F4F0E94B703BE016357C3
:101F60007F4FCE018F559F4F0E94D2056EE772E0E2
:101F7000CE0101960E94B703BE016F557F4FCE017F
:101F800001960E944203BC018091700690917106F7
:101F90000E94B505CE0101960E946C03CE018F55BB
:101FA0009F4F0E946C03CE0183579F4F0E946C038A
:101FB000CE0185559F4F0E946C0360E777E180E07A
:101FC00090E00E94FA098091700690917106892B29
:101FD00089F16DE972E0CE0183579F4F0E94B703EC
:101FE000BE0163577F4FCE018F559F4F0E94D20590
:101FF00063ED72E0CE0101960E94B703BE016F55FA
:102000007F4FCE0101960E944203BC018091700671
:10201000909171060E94B505CE0101960E946C0355
:10202000CE018F559F4F0E946C03CE0183579F4F67
:102030000E946C038091700690917106892B89F142
:102040006BEA72E0CE0183579F4F0E94B703BE0137
:1020500063577F4FCE018F559F4F0E94D20567EB8C
:1020600072E0CE0101960E94B703BE016F557F4F0B
:10207000CE0101960E944203BC01809170069091AE
:1020800071060E94B505CE0101960E946C03CE0137
:102090008F559F4F0E946C03CE0183579F4F0E9424
:1020A0006C038091700690917106892B89F161EC27
:1020B00072E0CE0183579F4F0E94B703BE01635762
:1020C0007F4FCE018F559F4F0E94D20560ED72E089
:1020D000CE0101960E94B703BE016F557F4FCE011E
:1020E00001960E944203BC01809170069091710696
:1020F0000E94B505CE0101960E946C03CE018F555A
:102100009F4F0E946C03CE0183579F4F0E946C0328
:102110008091700690917106892B89F169ED72E0CA
:10212000CE0183579F4F0E94B703BE0163577F4F75
:10213000CE018F559F4F0E94D20568EE72E0CE010E
:1021400001960E94B703BE016F557F4FCE010196E5
:102150000E944203BC0180917006909171060E941A
:10216000B505CE0101960E946C03CE018F559F4F9D
:102170000E946C03CE0183579F4F0E946C03809195
:10218000700690917106892B89F161EF72E0CE01A2
:1021900083579F4F0E94B703BE0163577F4FCE0105
:1021A0008F559F4F0E94D20561E073E0CE010196EA
:1021B0000E94B703BE016F557F4FCE0101960E946A
:1021C0004203BC0180917006909171060E94B50592
:1021D000CE0101960E946C03CE018F559F4F0E9445
:1021E0006C03CE0183579F4F0E946C036BE073E03A
:1021F00082E796E00E940A038823B9F18091700675
:1022000090917106892B89F162E173E0CE018357C9
:102210009F4F0E94B703BE0163577F4FCE018F557A
:102220009F4F0E94D2056FE173E0CE0101960E949C
:10223000B703BE016F557F4FCE0101960E94420346
:10224000BC0180917006909171060E94B505CE0187
:1022500001960E946C03CE018F559F4F0E946C0324
:10226000CE0183579F4F0E946C038091700690911E
:102270007106892B89F166E273E0CE0183579F4F87
:102280000E94B703BE0163577F4FCE018F559F4F0A
:102290000E94D20561E373E0CE0101960E94B7036C
:1022A000BE016F557F4FCE0101960E944203BC01D3
:1022B00080917006909171060E94B505CE0101963D
:1022C0000E946C03CE018F559F4F0E946C03CE017C
:1022D00083579F4F0E946C03809170069091710606
:1022E000892B89F16DE373E0CE0183579F4F0E94E4
:1022F000B703BE0163577F4FCE018F559F4F0E949A
:10230000D2056EE473E0CE0101960E94B703BE01D0
:102310006F557F4FCE0101960E944203BC01809110
:102320007006909171060E94B505CE0101960E943B
:102330006C03CE018F559F4F0E946C03CE018357D3
:102340009F4F0E946C038091700690917106892BBB
:1023500089F16BE573E0CE0183579F4F0E94B7036D
:10236000BE0163577F4FCE018F559F4F0E94D2050C
:102370006CE673E0CE0101960E94B703BE016F5573
:102380007F4FCE0101960E944203BC0180917006EE
:10239000909171060E94B505CE0101960E946C03D2
:1023A000CE018F559F4F0E946C03CE0183579F4FE4
:1023B0000E946C0369E773E08FE595E00E94A30536
:1023C00068EE73E080E090E00E94FA0961E086E048
:1023D0000E94BE0961E087E00E94BE0961E088E0DA
:1023E0000E94BE0961E08EE00E94BE0961E08FE0BC
:1023F0000E94BE0961E080E10E94BE0961E082E1C5
:102400000E94BE0960E082E10E94720940EC52E144
:1024100060E070E082E296E00E94E70A61E080916D
:1024200060060E94BE0961E0809160060E94720908
:102430001FB7F8948091F404811127C0ECE7F0E015
:102440008491E0E9F0E09491E82FF0E0EE0FFF1FB7
:10245000E859FF4FA591B491EC91E92321F461E093
:102460008AE00E94720961E08AE00E94BE098CB590
:1024700080618CBD8CB580648CBD61E08DE00E9474
:10248000BE0961E08BE00E94BE098091F4048F5F79
:102490008093F4041FBF8091FC059091FD050E947C
:1024A000E40A60E0809160060E94720980E80E9460
:1024B000DD0A80E90E94DD0A909163069295907F83
:1024C000809161068F70892B0E94DD0A83E00E9453
:1024D000DD0A61E0809160060E9472090E94DC0AB8
:1024E0001E012DE8220E311CC1014496C154DF4F5C
:1024F00099838883CF5BD0400E94340A672B682B76
:10250000692B09F081C00E94340A6230710581058F
:10251000910508F079C03DC00E94340A60932105FE
:102520007093220580932305909324056EE873E051
:1025300080915105909152050E94C30C66E973E0A9
:1025400080915105909152050E94C30C0E94340A5B
:10255000AB01BC012AE080915105909152050E9487
:10256000850468E973E080915105909152050E94BD
:10257000C30C62E070E080E090E00E94FA096AE03B
:1025800070E080E090E00E94FA09809125058111B9
:1025900094C0109202051092100580E196E00E940E
:1025A000AA026B017C016093F9047093FA04809392
:1025B000FB049093FC0480E196E00E9464024B01CE
:1025C0005C016093F5047093F6048093F704909394
:1025D000F804A7019601C701B6010E94FF1C8111F2
:1025E000C3C0A5019401C501B4010E94FF1C88234A
:1025F00009F47AC7B9C00E94461F8D819E819093CD
:1026000077068093760613CB0E94340A60935B05AD
:1026100070935C0580935D0590935E05009157056E
:10262000109158052091590530915A05601771078E
:102630008207930740F46093570570935805809381
:10264000590590935A05009157051091580520910E
:10265000590530915A056B017C01C01AD10AE20A72
:10266000F30A970186010A3F11052105310508F497
:1026700090CF6093570570935805809359059093B8
:102680005A050E94340A00912105109122052091DB
:10269000230530912405DC01CB01801B910BA20B9B
:1026A000B30B8197A105B10508F036CF63E070E068
:1026B00080E090E00E94FA09E4CF8091510590916A
:1026C0005205DC01ED91FC910480F581E02D099526
:1026D000892B99F38091510590915205DC01ED9180
:1026E000FC910480F581E02D0995181619060CF06F
:1026F00050CF8091510590915205DC01ED91FC91F4
:102700000680F781E02D099599278336910551F0D0
:102710008637910509F43DCF88359105D9F6109299
:102720002505D8CF61EA73E080915105909152055B
:102730000E94C30C2AE041E050E060E070E080912C
:102740005105909152050E94850468EA73E08091DA
:102750005105909152050E94C30C62E370E080E045
:1027600090E00E94FA0915CF81E0809302058FEF77
:10277000809318058093190580931A0580931B0593
:102780008EEF95E00E94AA026B017C016093070521
:10279000709308058093090590930A058EEF95E0E4
:1027A0000E9464024B015C01609303057093040571
:1027B0008093050590930605A7019601C701B60110
:1027C0000E94FF1C8111E3C6A5019401C501B4015B
:1027D0000E94FF1C8111DBC620E030E040E251E4A2
:1027E000C701B6010E9457200E94DB1C0E94A01C5A
:1027F0006B017C01D0921C0560931D056BE774E0B2
:102800008FE595E00E94C30CB601DD0C880B990B97
:102810000E94F81F20E030E040E251E40E942E1CAC
:102820000E94CE0420E030E040E251E460910305D4
:102830007091040580910505909106050E9457202E
:102840000E94DB1C0E94A01C6B017C01D0921E0523
:1028500060931F0561E974E08FE595E00E94C30C69
:10286000B601DD0C880B990B0E94F81F20E030E0C8
:1028700040E251E40E942E1C0E94CE0410920F05EB
:1028800010920105FE013196CC54DF4FF983E883A5
:10289000C45BD0406F0100E010E0602F61708EE0FB
:1028A0000E947209B8017595679561708FE00E946A
:1028B0007209B801759567957595679580E10E94D5
:1028C0007209A12CB12CE12CF12C6E2D617086E0E7
:1028D0000E947209B70175956795617087E00E9443
:1028E0007209B701759567957595679588E00E949F
:1028F000720964E670E080E090E00E94FA0980913D
:10290000FC059091FD050E94E40A60E0809160065C
:102910000E9472098AE00E94DD0A80E00E94DD0ABE
:10292000882E80E00E94DD0A912C982C8824882A29
:1029300080E00E94DD0A982F80E0CF53DF4F98831C
:10294000C15CD0400E94DD0A482E512C612C712CB4
:10295000762C652C542C4424CF53DF4F9881C15CD6
:10296000D040692A80E00E94DD0A482A80E00E9467
:10297000DD0A80936D0661E0809160060E94720915
:102980000E94DC0A9694879496948794B40180E020
:1029900090E0811430E2930618F070548109910997
:1029A0000E94F61F20E030E040E85CE30E945720E0
:1029B0006093650670936606809367069093680639
:1029C0004114510480E86806710460F0C301B2014B
:1029D0009A9520E230E040E050E00E94881BCA0156
:1029E000B90109C0C301B20155E095958795779566
:1029F00067955A95D1F7209161063091620628308B
:102A0000310551F02C30310581F40E94F81F2DEC76
:102A10003CEC4CEC5AE406C00E94F81F2DEC3CEC58
:102A20004CEC59E40E942E1C08C00E94F81F20E0C4
:102A300030E040E05CE30E945720609369067093A9
:102A40006A0680936B0690936C068091690690915C
:102A50006A06A0916B06B0916C06F601EA0DFB1DAB
:102A600080839183A283B38380916D06837C19F068
:102A700081E080930F0564E873E080E090E00E94BD
:102A8000FA099FEFE91AF90AA4E0AA0EB11CB7E00F
:102A9000EB16F10409F019CF0F5F1F4FECE1CE0EDA
:102AA000D11C0530110509F0F8CEC0900105C654BF
:102AB000DF4FC882CA5BD0409E012F553F4FC8549C
:102AC000DF4F39832883C85BD040CE0101964C018B
:102AD000CE54DF4F39832883C25BD040C12CD12C28
:102AE0007601CA54DF4F99828882C65BD040A12C00
:102AF000B12C00E010E4412C512CCA54DF4FE88186
:102B0000F981C65BD0406191719181919191CA54D4
:102B1000DF4FF983E883C65BD04092012F5F3F4FC0
:102B2000C354DF4F39832883CD5BD040208131816E
:102B3000428153810E94C11B3B01C554DF4F8883F2
:102B4000CB5BD040C454DF4F9883CC5BD0400E9415
:102B5000A01C9B0177FF04C022273327261B370BBD
:102B6000B501C801CF53DF4F2883C15CD040CE539D
:102B7000DF4F3883C25CD0400E94A01CAB01CF5312
:102B8000DF4F2881C15CD040CE53DF4F3881C25C1B
:102B9000D04077FF04C044275527461B570B4217E8
:102BA00053079CF4CE54DF4FA881B981C25BD0405B
:102BB0004D925C925301C554DF4F0881CB5BD040EE
:102BC000C454DF4F1881CC5BD04020E030E040E0BF
:102BD00050E4B501C8010E94F11F811106C0B1E0A7
:102BE000C654DF4FB883CA5BD040C354DF4F488020
:102BF0005980CD5BD040E6E04E16510409F07DCF00
:102C0000CE54DF4FA881B981C25BD0406D917D91D8
:102C1000CE54DF4FB983A883C25BD040072E000C8F
:102C2000880B990B0E94F81F20E030E040E05FE342
:102C30000E94C21B9B01AC01C701B6010E94C21BCE
:102C40006B017C01BCE18B0E911C8214930409F092
:102C500048CFC654DF4FE881CA5BD040E0930105FE
:102C600020E030E040EA50E40E942E1C20E030E0FA
:102C700048EC52E40E94572020E030E040EB50E462
:102C80000E942E1C6093FD047093FE048093FF0449
:102C9000909300050E94DB1C0E94A71C162F8FEF4B
:102CA000810F843618F081E080930105109315059B
:102CB00061EB73E08FE595E00E94C30C412F50E07B
:102CC00060E070E02AE08FE595E00E9485048FE5E2
:102CD00095E00E94BF0C10920B0510920C0510920B
:102CE0000D0510920E05C0900F05CE54DF4FC8821F
:102CF000C25BD0408101412C512C32014801D801E6
:102D00001D921D921D921C921397C854DF4FE881AB
:102D1000F981C85BD040E190F190C854DF4FF9834E
:102D2000E883C85BD040A12CB12CC12CD12CCE148F
:102D3000DF04FCF4CC54DF4FE881F981C45BD04060
:102D4000EA0DFB1D2081318142815381D8016D91B3
:102D50007D918D919C910E94C21BF80160837183CB
:102D600082839383FFEFCF1ADF0A24E0A20EB11C07
:102D7000DECF0C5F1F4FB7016F5F7F4F072E000C38
:102D8000880B990B0E94F81F9B01AC01D4016D9137
:102D90007D918D919C910E942E1C6B017C0120E005
:102DA00030E040E752E40E94D61C181634F4B1E03B
:102DB000CE54DF4FB883C25BD040A7019601C30158
:102DC000B2010E94C21B2B013C01CC54DF4FE881B1
:102DD000F981C45BD0407C96CC54DF4FF983E88303
:102DE000C45BD040C154DF4FC880D980CF5BD04096
:102DF0000C151D0509F082CFCE54DF4FD880C25B81
:102E0000D040D0920F0520E030E040EA50E40E942C
:102E10002E1C60930B0570930C0580930D05909309
:102E20000E0520E030E040E251E40E9457200E946D
:102E3000DB1C0E94A01C6B017C0160EC73E08FE541
:102E400095E00E94C30CB6010D2C000C880B990B69
:102E50000E94F81F20E030E040E251E40E942E1C66
:102E60000E94CE04D0921605C092170580911405D9
:102E7000982F9F779093140590910205911103C0AC
:102E80008F738093140580911005811105C0809186
:102E900014058F7D8093140580910F05811105C065
:102EA000809114058F7E8093140580910105811116
:102EB00005C080911405877F8093140580911205C9
:102EC000811105C0809114058B7F8093140580913A
:102ED0001105811105C0809114058D7F8093140523
:102EE0004AE06EE170E0CE018F559F4F0E94710362
:102EF00064ED73E0C1010E94B70368ED73E0CE0199
:102F000001960E94B703B101CE0101960E944203CF
:102F100069E573E00E942903BE016F557F4F0E944F
:102F20004203BC01CE0185559F4F0E949D034CE09A
:102F300050E064E175E0CE0185559F4F0E94AE06DA
:102F4000182FCE0185559F4F0E946C03CE0101962C
:102F50000E946C03C1010E946C03CE018F559F4FEC
:102F60000E946C0311110CC0809170069091710643
:102F7000009709F46CC160EE73E00E94A30567C17D
:102F800060E177E2CE0185559F4F0E94120460EB0D
:102F900073E0CE0185559F4F0E940A03882351F0AC
:102FA0008091700690917106009709F445C164EF15
:102FB00073E013C06DEF73E0CE0185559F4F0E9403
:102FC0000A03182F882361F0809170069091710692
:102FD000009709F431C167E074E00E94A3052CC199
:102FE0006FE174E0CE0101960E94B7034D815E81CE
:102FF000C155DF4F88819981CF5AD04084179507FA
:1030000098F0C555DF4F88819981CB5AD040009701
:1030100059F069817A816115710531F00E944D1F67
:1030200011E0892B09F010E0CE0101960E946C039B
:10303000112309F4E2C069E573E0CE0101960E9414
:10304000B703C155DF4F88819981CF5AD040089787
:1030500098F0C555DF4F08811981CB5AD04069815E
:103060007A81C80107960E945B1F009729F07C01B6
:10307000E01AF10A870102C00FEF1FEFCE0101969F
:103080000E946C03980147E050E0BE0165557F4FF8
:10309000CE0101960E94CC0389819A81009719F094
:1030A0000E94751F03C060E070E0CB017093790649
:1030B00060937806CE0101960E946C03C155DF4FE4
:1030C00028813981CF5AD040A8014F5F5F4FBE01A0
:1030D00065557F4FCE018F559F4F0E94CC03CB5536
:1030E000DF4F88819981C55AD0404C0196948794CE
:1030F00000E010E0E12CF12CE814F9040CF04AC0D7
:10310000B801CE018F559F4F0E94F802DC018C91CF
:10311000B801813454F0CE018F559F4F0E94F802C0
:10312000FC0180818753B82E07C0CE018F559F4F79
:103130000E94F802DC01BC90B29430EFB322680127
:10314000BFEFCB1ADB0AB601CE018F559F4F0E940D
:10315000F802FC018081B60181344CF0CE018F551C
:103160009F4F0E94F802DC018C91875308C0CE016A
:103170008F559F4F0E94F802FC0180818053F70118
:10318000E259F94FB80EB486FFEFEF1AFF0A0E5F4F
:103190001F4FB2CF8091700690917106892B11F16B
:1031A0004AE0B401C1010E94710366E274E0CE01FD
:1031B00001960E94B703B101CE0101960E9442031D
:1031C00069E474E00E942903BC018091700690912B
:1031D00071060E94B505CE0101960E946C03C101E3
:1031E0000E946C03CE018F559F4F0E946C03CF54F9
:1031F000DF4F8882C15BD04024C0809170069091DF
:103200007106892BF1F060E574E0CE0101960E9411
:10321000B703BE0165557F4FCE0101960E94420360
:10322000BC0180917006909171060E94B505CE0197
:1032300001960E946C0305C0CF54DF4F1882C15B1A
:10324000D040CE0185559F4F0E946C0305C0CF54DE
:10325000DF4F1882C15BD040CF54DF4FC880C15BC5
:10326000D040C092130568EE73E080E090E00E94C9
:10327000FA0910921105D10111961C921E92139613
:103280001C921E92129715961C921E9214974AE059
:10329000BE016F5F7F4F8C2D90E00E94C71FBE0163
:1032A0006F5F7F4FC1010E9455036FE374E0CE0151
:1032B00001960E94B703B101CE0101960E9442031C
:1032C00069E474E00E942903BC018FE595E00E9447
:1032D000B505CE0101960E946C03C1010E946C03EA
:1032E00000E010E08091130590E008171907C4F57D
:1032F000F801E259F94F8485F1011182108213829D
:103300001282158214824AE0BE016F5F7F4F90E007
:103310000E94C71FBE016F5F7F4FC1010E9455030E
:10332000B101CE0101960E949D0369E573E0CE01D3
:1033300001960E942903DC0114964D915C9115972A
:103340006D917C918FE595E00E94780CCE010196FD
:103350000E946C03C1010E946C030F5F1F4FC2CF1C
:103360008FE595E00E94BF0C109212058091110527
:10337000882309F457C080911005811156C08091AF
:103380000F05811152C02091070530910805409129
:10339000090550910A0560910B0570910C0580910B
:1033A0000D0590910E050E94C11B6B017C012DEC57
:1033B0003CEC4CEC5DE36091030570910405809159
:1033C0000505909106050E9457204B015C0120E005
:1033D00030E040E450E40E94C11B2B013C019B0102
:1033E000AC01C701B6010E94F11F18160CF5A3012C
:1033F0009201C701B6010E94D61C1816CCF420E039
:1034000030E040E85FE3C501B4010E94C11B9B01AD
:10341000AC01C701B6010E94F11F18164CF021EA59
:10342000F22E08C0F090130505C0FF24FA9402C0E4
:1034300090EAF92E05E010E061E082E10E94720955
:103440006F2D82E296E00E9473086AE070E080E0EF
:1034500090E00E94FA0960E082E10E94720968EE41
:1034600073E080E090E00E94FA0982E296E00E9418
:10347000C708892BE1F082E296E00E94DF0881E034
:103480008093120566E674E08FE595E00E94C30C18
:1034900080911205882319F062E671E002C064E0B1
:1034A00074E08FE595E00E94A30581E001C080E013
:1034B0000150110919F0882309F4BECF0CE310E084
:1034C0008CE3E82EF12C68EE73E080E090E00E943F
:1034D000FA09B1E0EB1AF108B1F70150110981F7CF
:1034E0000E942B080C947C1220E030E040E251E472
:1034F000C701B6010E9457200E94DB1C0E94A01C3D
:103500006B017C01D0921805609319056BE774E09C
:103510008FE595E00E94C30CB601DD0C880B990B7A
:103520000E94F81F20E030E040E251E40E942E1C8F
:103530000E94CE0420E030E040E251E46091F504C6
:103540007091F6048091F7049091F8040E9457203E
:103550000E94DB1C0E94A01C6B017C01D0921A050A
:1035600060931B0561E974E08FE595E00E94C30C50
:10357000B601DD0C880B990B0E94F81F20E030E0AB
:1035800040E251E40E942E1C0E94CE04F9C881E062
:10359000809310058FEF80931C0580931D05809309
:1035A0001E0580931F056AC9EFE5F5E013821282BC
:1035B00088EE93E0A0E0B0E084839583A683B78390
:1035C0008EE291E09183808385EC90E095878487FB
:1035D00084EC90E09787868780EC90E0918B808BDD
:1035E00081EC90E0938B828B82EC90E0958B848BC6
:1035F00086EC90E0978B868B118E128E138E148E34
:10360000ECEFF5E085E58083118260EB73E082E703
:1036100096E00E94B703E0E6F6E081E1808387E070
:1036200090E092838183148213821582168217821E
:1036300010861186128613861486158620E043E0D4
:1036400062E081E496E00E94980B20E04AE069E0A5
:1036500082E296E00E94980BA0E1B6E084E0159625
:103660008C93159786E116968C931697EAE8F0E00E
:10367000E4911796EC931797E6E7F0E0E49118963B
:10368000EC93189740E85EE360E070E01D964D9380
:103690005D936D937C935097AEEFB5E095E01596F2
:1036A0009C93159716968C931697EBE8F0E0E491AF
:1036B0001796EC931797E7E7F0E0E4911896EC93F0
:1036C00018971D964D935D936D937C935097089535
:1036D00082E296E00E94000981E496E00E940009DF
:1036E00082E796E00C946C0397FB072E16F4009487
:1036F00007D077FD09D00E94A71B07FC05D03EF438
:10370000909581959F4F0895709561957F4F08958D
:10371000052E97FB1EF400940E949F1B57FD07D0B7
:103720000E94152107FC03D04EF40C949F1B50956A
:103730004095309521953F4F4F4F5F4F089590959D
:103740008095709561957F4F8F4F9F4F0895AA1B6D
:10375000BB1B51E107C0AA1FBB1FA617B70710F07C
:10376000A61BB70B881F991F5A95A9F780959095AE
:10377000BC01CD010895EE0FFF1F0590F491E02DDF
:1037800009945058BB27AA270E94D91B0C94DB2010
:103790000E94CD2038F00E94D42020F039F49F3FC1
:1037A00019F426F40C94CA200EF4E095E7FB0C946F
:1037B000C420E92F0E94EC2058F3BA176207730760
:1037C0008407950720F079F4A6F50C940E210EF4E9
:1037D000E0950B2EBA2FA02D0B01B90190010C0121
:1037E000CA01A0011124FF27591B99F0593F50F439
:1037F000503E68F11A16F040A22F232F342F442791
:10380000585FF3CF469537952795A795F040539588
:10381000C9F77EF41F16BA0B620B730B840BBAF058
:103820009150A1F0FF0FBB1F661F771F881FC2F7C3
:103830000EC0BA0F621F731F841F48F487957795D7
:103840006795B795F7959E3F08F0B0CF9395880F91
:1038500008F09927EE0F9795879508950E94421CCE
:103860000C94DB200E94D42058F00E94CD2040F020
:1038700029F45F3F29F00C94C42051110C940F21BE
:103880000C94CA200E94EC2068F39923B1F35523CD
:1038900091F3951B550BBB27AA2762177307840763
:1038A00038F09F5F5F4F220F331F441FAA1FA9F3F9
:1038B00035D00E2E3AF0E0E832D091505040E695E7
:1038C000001CCAF72BD0FE2F29D0660F771F881F48
:1038D000BB1F261737074807AB07B0E809F0BB0B3B
:1038E000802DBF01FF2793585F4F3AF09E3F51054F
:1038F00078F00C94C4200C940F215F3FE4F3983EC1
:10390000D4F3869577956795B795F7959F5FC9F737
:10391000880F911D9695879597F90895E1E0660FB8
:10392000771F881FBB1F621773078407BA0720F031
:10393000621B730B840BBA0BEE1F88F7E09508959A
:103940000E94A71C6894B1110C940F2108950E9445
:10395000F42088F09F5798F0B92F9927B751B0F00D
:10396000E1F0660F771F881F991F1AF0BA95C9F703
:1039700014C0B13091F00E940E21B1E008950C9472
:103980000E21672F782F8827B85F39F0B93FCCF325
:10399000869577956795B395D9F73EF49095809580
:1039A000709561957F4F8F4F9F4F08950E943320F0
:1039B00008F48FEF08950E94F420E8F09E37E8F0B5
:1039C0009639B8F49E3848F4672F782F8827985F87
:1039D000F9CF86957795679593959539D0F3B62F5E
:1039E000B1706B0F711D811D20F4879577956795D8
:1039F00093950C94041D0C941F1D0C940F210E9490
:103A00003320880B990B0895882371F4772321F0D4
:103A10009850872B762F07C0662311F499270DC085
:103A20009051862B70E060E02AF09A95660F771F20
:103A3000881FDAF7880F9695879597F908959F3F25
:103A400031F0915020F4879577956795B795880F59
:103A5000911D9695879597F90895CF93DF938230BE
:103A6000910510F482E090E0E0910A07F0910B07D5
:103A700020E030E0C0E0D0E0309711F1408151818A
:103A800048175907C0F04817590761F4828193819C
:103A9000209719F09B838A832BC090930B07809308
:103AA0000A0726C02115310519F04217530718F4EB
:103AB0009A01BE01DF01EF010280F381E02DDCCF2E
:103AC0002115310509F1281B390B2430310590F4FB
:103AD00012968D919C9113976115710521F0FB0150
:103AE0009383828304C090930B0780930A07FD01A0
:103AF000329644C0FD01E20FF31F8193919322504F
:103B000031092D933C933AC0209108073091090761
:103B1000232B41F4209102013091030130930907D6
:103B200020930807209100013091010121153105F2
:103B300041F42DB73EB74091040150910501241B7B
:103B4000350BE0910807F0910907E217F307A0F49D
:103B50002E1B3F0B2817390778F0AC014E5F5F4FE3
:103B60002417350748F04E0F5F1F50930907409305
:103B700008078193919302C0E0E0F0E0CF01DF916C
:103B8000CF9108950F931F93CF93DF93009709F47C
:103B90008CC0FC0132971382128200910A071091A7
:103BA0000B070115110581F420813181820F931FCC
:103BB00020910807309109072817390779F5F09304
:103BC0000907E093080771C0D80140E050E0AE1744
:103BD000BF0750F412962D913C911397AD0121151A
:103BE000310509F1D901F3CF9D01DA013383228335
:103BF00060817181860F971F8217930769F4EC012A
:103C000028813981260F371F2E5F3F4F3183208354
:103C10008A819B8193838283452B29F4F0930B0740
:103C2000E0930A0742C01396FC93EE931297ED01BE
:103C3000499159919E01240F351FE217F30771F442
:103C400080819181840F951F029611969C938E938B
:103C50008281938113969C938E931297E0E0F0E01B
:103C6000D80112968D919C911397009719F0F80145
:103C70008C01F6CF8D919C9198012E5F3F4F820F62
:103C8000931F20910807309109072817390769F415
:103C9000309729F410920B0710920A0702C0138282
:103CA00012821093090700930807DF91CF911F91AB
:103CB0000F910895A0E0B0E0E0E6FEE10C943B2116
:103CC000EC01009721F4CB010E942D1DB8C0FC012E
:103CD000E60FF71F9C0122503109E217F30708F4A1
:103CE000ACC0D9010D911C91119706171707B0F0C0
:103CF0000530110508F49FC0C8010497861797077F
:103D000008F499C002501109061B170B0193119377
:103D10006D937C93CF010E94C21D8DC05B01A01AE0
:103D2000B10A4C01800E911EA0910A07B0910B07B9
:103D300040E050E0E12CF12C109709F44AC0A8159E
:103D4000B905D1F56D907C901197630182E0C80EA2
:103D5000D11CCA14DB0480F1A3014A195B096A0172
:103D600082E0C80ED11C1296BC9012971396AC91AB
:103D7000B5E0CB16D10440F0B282A38351834083D7
:103D8000D9016D937C930AC00E5F1F4FC301800F52
:103D9000911FF90191838083EB2DFA2FE114F10437
:103DA00031F0D7011396FC93EE93129744C0F09331
:103DB0000B07E0930A073FC08D919C91119748171C
:103DC000590708F4AC017D0112960D90BC91A02D0D
:103DD000B3CF809108079091090788159905E1F400
:103DE00046175707C8F48091000190910101009790
:103DF00041F48DB79EB74091040150910501841B99
:103E0000950BE817F907C8F4F0930907E093080742
:103E1000F901718360830FC0CB010E942D1D7C01CD
:103E2000009759F0A801BE010E94291FCE010E94EF
:103E3000C21DC70104C0CE0102C080E090E0CDB732
:103E4000DEB7EEE00C94572181E090E0F8940C94FA
:103E50006E21FB01DC0102C001900D9241505040E7
:103E6000D8F70895FC018191861721F08823D9F7AE
:103E7000992708953197CF010895FB01DC018D91B9
:103E8000019080190110D9F3990B0895FB01DC0111
:103E900001900D920020E1F70895FB01DC014150F3
:103EA000504030F08D910190801919F40020B9F73D
:103EB000881B990B0895FB0151915523A9F0BF016F
:103EC000DC014D9145174111E1F759F4CD01019005
:103ED000002049F04D9140154111C9F3FB014111FA
:103EE000EFCF81E090E0019708951F93FC0199279F
:103EF0008827BC01E89411911032E9F3193010F0D1
:103F00001E30C8F31B3251F01D3249F4689406C0CC
:103F10000E94B21F610F711D811D911D11911053DF
:103F20001A30B0F33EF490958095709561957F4F6F
:103F30008F4F9F4F1F9108954532510520F4423015
:103F400010F00C94A71FFB011082CB010895BB2732
:103F50004A3031F4992322F4BDE2909581959F4F28
:103F60000C94C81F592F482F372F262F660F771F05
:103F7000881F991F660F771F881F991F620F731F75
:103F8000841F951F660F771F881F991F0895BB27F1
:103F9000FB015527AA27880F991FAA1FA41710F005
:103FA000A41B83955051B9F7A05DAA3308F0A95D11
:103FB000A193009779F7B111B1931192CB010C94B1
:103FC000E11FDC01FC01672F71917723E1F7329744
:103FD00004C07C916D9370836291AE17BF07C8F3E4
:103FE00008950E94332008F481E00895E89409C000
:103FF00097FB3EF490958095709561957F4F8F4F1C
:104000009F4F9923A9F0F92F96E9BB279395F69531
:10401000879577956795B795F111F8CFFAF4BB0FAF
:1040200011F460FF1BC06F5F7F4F8F4F9F4F16C013
:10403000882311F096E911C0772321F09EE8872F9D
:10404000762F05C0662371F096E8862F70E060E059
:104050002AF09A95660F771F881FDAF7880F9695D2
:10406000879597F90895990F0008550FAA0BE0E876
:10407000FEEF16161706E807F907C0F0121613062A
:10408000E407F50798F0621B730B840B950B39F46A
:104090000A2661F0232B242B252B21F408950A26D0
:1040A00009F4A140A6958FEF811D811D08950E94FE
:1040B0006A200C94DB200E94CD2038F00E94D4208E
:1040C00020F0952311F00C94C4200C94CA201124E4
:1040D0000C940F210E94EC2070F3959FC1F3950F73
:1040E00050E0551F629FF001729FBB27F00DB11D7C
:1040F000639FAA27F00DB11DAA1F649F6627B00D0C
:10410000A11D661F829F2227B00DA11D621F739FF4
:10411000B00DA11D621F839FA00D611D221F749F02
:104120003327A00D611D231F849F600D211D822F49
:10413000762F6A2F11249F5750409AF0F1F0882370
:104140004AF0EE0FFF1FBB1F661F771F881F91509D
:104150005040A9F79E3F510580F00C94C4200C9468
:104160000F215F3FE4F3983ED4F3869577956795EA
:10417000B795F795E7959F5FC1F7FE2B880F911DC7
:104180009695879597F9089597F99F6780E870E06D
:1041900060E008959FEF80EC089500240A941616BD
:1041A000170618060906089500240A941216130625
:1041B000140605060895092E0394000C11F48823B3
:1041C00052F0BB0F40F4BF2B11F460FF04C06F5FCF
:1041D0007F4F8F4F9F4F089557FD9058440F551FA5
:1041E00059F05F3F71F04795880F97FB991F61F079
:1041F0009F3F79F087950895121613061406551FF0
:10420000F2CF4695F1DF08C0161617061806991F5B
:10421000F1CF86957105610508940895E894BB2750
:1042200066277727CB0197F90895A1E21A2EAA1BDA
:10423000BB1BFD010DC0AA1FBB1FEE1FFF1FA21756
:10424000B307E407F50720F0A21BB30BE40BF50B53
:10425000661F771F881F991F1A9469F760957095DC
:10426000809590959B01AC01BD01CF0108952F92DF
:104270003F924F925F926F927F928F929F92AF92F6
:10428000BF92CF92DF92EF92FF920F931F93CF9343
:10429000DF93CDB7DEB7CA1BDB0B0FB6F894DEBFDA
:1042A0000FBECDBF09942A88398848885F846E8400
:1042B0007D848C849B84AA84B984C884DF80EE804A
:1042C000FD800C811B81AA81B981CE0FD11D0FB653
:1042D000F894DEBF0FBECDBFED01089510E0C2E639
:1042E000D0E004C0FE010E94BB1B2196C336D1075B
:0642F000C9F7F894FFCFAE
:1042F60000000C0780002B7E151628AED2A6ABF761
:10430600158809CF4F3C2B7E151628AED2A6ABF7E3
:10431600158809CF4F3C020155B000000000C207C6
:10432600780C8B0769077D0709080000000018094B
:10433600780C18091809180918090000000018094E
:10434600780C000000007308780CC708DF085A08CC
:1043560072086572726F00564D4450565F317C315B
:104366005F564D4450560D0A00737973207265737B
:10437600657400496E76616C69642076657273694E
:104386006F6E0056657273696F6E20697320002C1C
:10439600206D6F64656C20697320006D6163207306
:1043A60065742061647220006D61632073657420FA
:1043B600707772696478203130006D6163207365AF
:1043C60074207265747820006D61632073657420B3
:1043D6006368207374617475732000206F666600CD
:1043E6004368616E6E656C73200020746F20002038
:1043F600776572652064697361626C6564006D61DE
:1044060063207365742064657661646472006D610F
:104416006320736574206E776B736B6579006D61CD
:10442600632073657420617070736B6579006D61CC
:1044360063206A6F696E20616270006163636570F4
:1044460074656400506572736F6E616C697A65207D
:104456006E6F742061636365707465643A20006DE5
:1044660061632067657420737461747573005065A9
:1044760072736F6E616C697A6520616363657074CF
:1044860065642E205374617475733A2000737973D2
:10449600206765742068776575690073797320678E
:1044A60065742076646400426174746572793A209A
:1044B600006D6163206765742061707065756900C1
:1044C6004170704555493A20006D616320676574F7
:1044D60020646576657569004465764555493A20D8
:1044E600006D61632067657420646576616464723B
:1044F60000446576416464723A2000524E32343884
:1045060033006D6163206765742062616E640042EA
:10451600616E643A20006D61632067657420647281
:10452600004461746120526174653A20006D6163D4
:104536002067657420727864656C61793100525821
:104546002044656C617920313A20006D61632067F3
:10455600657420727864656C617932005258204423
:10456600656C617920323A20004C6F526120736588
:1045760074757020636F6D706C6574652100564D9F
:104586004450455F31007C005F564D4450450D0A4E
:1045960000564D4450435F005F564D4450430D0A4C
:1045A6000055736F20657374696D61646F3A2000FE
:1045B60054656D7065726174757261206772C3A30C
:1045C6006F3A2000636E66006D6163207478200088
:1045D60053656E6420636F6D6D616E6420666169FC
:1045E6006C65640054696D652D6F7574006D61634B
:1045F6005F74785F6F6B005375636365737366757D
:104606006C207472616E736D697373696F6E006D81
:1046160061635F7278005375636365737366756C67
:10462600207472616E736D697373696F6E2E20529A
:104636006563656976656420002062797465730038
:10464600556E657870656374656420726573706F06
:104656006E73653A200041726475696E6F20566507
:104666006E74696C61646F723A200054656D706592
:1046760072617475726120496E7465726E613A205A
:1046860000556D696461646520496E7465726E617A
:104696003A20006E616E00696E66006F7666002EC7
:1046A600005761697420666F72204F4B2074696DE4
:1046B600652D6F7574206578706972656400526542
:1046C60073706F6E7365206973206E6F74204F4B25
:1046D6003A200053656E64696E673A200020776958
:0446E60074682000D4
:00000001FF
